:10000000D1C00000F0C00000EEC00000ECC0000055
:10001000EAC00000E8C00000E6C00000E4C0000044
:10002000E2C00000E0C00000DEC00000DCC0000054
:10003000DAC00000D8C00000D6C00000D4C0000064
:10004000D2C00000AAC20000CEC00000CCC0000098
:10005000CAC00000C8C00000C6C00000C4C0000084
:10006000C2C00000C0C00000BEC00000BCC0000094
:10007000BAC00000B8C00000B6C00000B4C00000A4
:10008000B2C00000B0C00000AEC00000ACC00000B4
:10009000AAC00000A8C00000A6C00000A4C00000C4
:1000A000A2C00000A0C000009EC000009CC00000D4
:1000B0009AC0000098C0000096C0000094C00000E4
:1000C00092C0000090C000008EC000008CC00000F4
:1000D0008AC0000088C0000086C0000084C0000004
:1000E00082C00000770D770DA40DA90DBE0D770D10
:1000F000770DA40DA90D07634236B79BD8A71A390F
:10010000685618AEBAAB558C1D3CB7CC5763BD6D65
:10011000EDFD753EF6177231BF000000803F08000C
:100120000000BE922449123EABAAAA2ABECDCCCC76
:100130004C3E00000080BEABAAAAAA3E0000000010
:10014000BF000000803F0000000000084178D3BBE2
:100150004387D1133D190E3CC3BD4282AD2B3E688F
:10016000EC8276BED98FE1A93E4C80EFFFBE01C480
:10017000FF7F3F0000000000FFD5809189028230A0
:10018000D8F307D1F9CFCF93DF931F92CDB7DEB766
:10019000CE0101960E94380C69810E94050D0E94D3
:1001A000460DF6CF11241FBECFEFD1E2DEBFCDBF8B
:1001B00000E00CBF12E0A0E0B2E0EAE8FBE200E001
:1001C0000BBF02C007900D92A834B107D9F722E007
:1001D000A8E4B2E001C01D92A13DB207E1F70E9480
:1001E000DF0F0C94C3150CCFFC010396928381831F
:1001F0002FEF3FEF34832383968385839087878314
:1002000010820895FC01118610860895CF93DF9324
:10021000EB01488159814F3F2FEF520721F4FC0138
:10022000A781B0850DC0DC01139601C0DF011296D5
:10023000ED91FC9113972081318142175307B0F75C
:100240001296ED91FC911397FB83EA83D583C483C7
:10025000BD83AC831396DC93CE93129799878887DE
:10026000FC0120812F5F2083DF91CF910895CF93F0
:10027000DF93FC01A085B185C281D3818481958102
:100280009D838C83C481D581828193819B838A8362
:1002900011968D919C911297E817F90731F484819A
:1002A000958112969C938E931197118610868C914E
:1002B00081508C938C91DF91CF910895FC016083E4
:1002C000319770833197108231971082319720E8EF
:1002D00020833197108231971082319710823197A5
:1002E00022E02083319723E02083319724E020838C
:1002F000319725E02083319726E02083319727E04E
:100300002083319728E02083319729E0208331979B
:1003100020E12083319721E12083319722E120835E
:10032000319723E12083319724E12083319725E120
:100330002083319726E12083319727E1208331976D
:1003400028E12083319729E12083319720E220831F
:10035000319721E22083319722E22083319723E2F3
:1003600020833197408331975083319726E2208351
:10037000319727E22083319728E22083319729E2C1
:100380002083319720E32083319721E320838697D0
:1003900008950F920FB6F8940F920BB60F920CB609
:1003A0000F921F9211242F923F924F925F926F9261
:1003B0007F928F929F92AF92BF92CF92DF92EF92F5
:1003C000FF920F931F932F933F934F935F936F93DE
:1003D0007F938F939F93AF93BF93CF93DF93EF93CD
:1003E000FF93A091AD02B091AE020DB60D920EB684
:1003F0000D920E94140AA091AD02B091AE02CD916F
:10040000CDBFDD91DEBFFF91EF91DF91CF91BF9125
:10041000AF919F918F917F916F915F914F913F919C
:100420002F911F910F91FF90EF90DF90CF90BF9091
:10043000AF909F908F907F906F905F904F903F9084
:100440002F901F900F900CBE0F900BBE0F900FBE01
:100450000F9008950F920FB6F8940F920BB60F926B
:100460000CB60F921F9211242F923F924F925F92DF
:100470006F927F928F929F92AF92BF92CF92DF92B4
:10048000EF92FF920F931F932F933F934F935F939E
:100490006F937F938F939F93AF93BF93CF93DF938C
:1004A000EF93FF93A091AD02B091AE020DB60D9205
:1004B0000EB60D9213BE8DD58111B6D7A091AD02A7
:1004C000B091AE02CD91CDBFDD91DEBFFF91EF9136
:1004D000DF91CF91BF91AF919F918F917F916F915C
:1004E0005F914F913F912F911F910F91FF90EF904E
:1004F000DF90CF90BF90AF909F908F907F906F9044
:100500005F904F903F902F901F900F900CBE0F90D8
:100510000BBE0F900FBE0F900895109289008CE7CC
:10052000809388008BE080938100EFE6F0E080818B
:10053000826080830895F1DFA091AD02B091AE0298
:10054000CD91CDBFDD91DEBFFF91EF91DF91CF91D6
:10055000BF91AF919F918F917F916F915F914F91DB
:100560003F912F911F910F91FF90EF90DF90CF90CF
:10057000BF90AF909F908F907F906F905F904F90C3
:100580003F902F901F900F900CBE0F900BBE0F90BE
:100590000FBE0F90089581E008955CDF1895CF930A
:1005A000DF93EC0106D5CE010E946914EC012AD636
:1005B000CE01DF91CF910895CF93DF93009731F073
:1005C000EC01F7D4CE010E9401151CD6DF91CF912A
:1005D00008950FB6F8940F92FC01828D811102C02C
:1005E00081E001C080E00F900FBE08950FB6F8942F
:1005F0000F92FC01228D838D281302C081E001C07F
:1006000080E00F900FBE08950F931F93CF93DF9359
:10061000EC01042F1A8D4C8D41110CC088819981F9
:10062000892B09F042C08C819D810E94D50B1D82CF
:100630001C8242C0011117C050E08A819B810E9438
:100640008A152C8D8A819B81820F911D9B838A83C1
:100650002C813D818217930750F1888199819B837A
:100660008A8380E029C050E08E819F810E948A1594
:100670008C8D90E09195819591092E813F81280F75
:10068000391F3F832E83488159812417350730F461
:100690002C813D81820F931F9F838E83023049F40A
:1006A000112349F0115080E007C080E005C080E0D0
:1006B00003C080E001C080E01F5F1A8FDF91CF91FF
:1006C0001F910F910895FC01448D4423A9F050E03F
:1006D00026813781240F351F3783268384819581B6
:1006E0002817390720F08081918197838683CB0179
:1006F000668177810C948A1508951F93CF93DF93B9
:10070000EC010FB6F8940F921E8D0AC089898823D8
:1007100049F0CE0141963FD781110E94D10B115073
:100720001116A4F38FEF8E8F0F900FBE0FB6F894B3
:100730000F921D8D0AC08885882349F0CE01089646
:100740002AD781110E94D10B11501116A4F38FEFFB
:100750008D8F0F900FBEDF91CF911F910895CF9392
:10076000DF93EC01262F892B09F44CC06B8D662397
:1007700009F44AC070E08FEF9FEF0E943A148C8D0D
:1007800090E06817790708F441C00FB6F8940F920B
:10079000E881F9818B8D4C8D90E050E0849FB00111
:1007A000859F700D949F700D11246E0F7F1F7D83A8
:1007B0006C831A8EFB83EA830197489FB001499F9F
:1007C000700D589F700D1124CF01860F971F9F83C6
:1007D0008E838FEF8D8F8E8F21110AC0888588239D
:1007E00069F0CE010896D7D6882341F0D2DD06C045
:1007F000CE010896F9DCCE014196F6DC0F900FBED3
:1008000081E005C080E003C080E001C080E0DF91AE
:10081000CF9108950F931F93F801611103C01183C5
:10082000008302C051834083838F648F61E0CF01D6
:1008300096DF1F910F910895DF92EF92FF920F9331
:100840001F93CF93DF93382FE62F882319F1682F5A
:1008500070E08FEF9FEF0E943A148E2F90E06817A0
:100860007907D8F03E9FC0011124813E2FEF9207F7
:10087000B8F4D42EDE2FC32F4F9691DE7C01009763
:1008800089F08C012D2DAC01415E5F4F6D2F8C2FB7
:10089000C1DF08C0E12CF12C05C0E12CF12C02C015
:1008A000E12CF12CC701DF91CF911F910F91FF90A7
:1008B000EF90DF900895CF92DF92EF92FF920F9327
:1008C0001F93CF93DF9300D01F921F92CDB7DEB757
:1008D0008C017B015D834C83C22ED12C0FB6F89422
:1008E0000F92F801928D838D981718F0F2E0CF12D5
:1008F00015C04C2DB701C80187DEF80191899923F5
:1009000039F0C801419647D6882321F042DD02C064
:1009100081113FDD0F900FBE81E041C08C819D8130
:10092000892B21F40F900FBE80E039C0D11005C093
:10093000CE010196EDD6DD24D3940F900FBE39D3AE
:100940000FB6F8940F92F801858D8F3F09F4158E3C
:10095000F801868D8F3F09F4168E0F900FBEBE01F1
:100960006C5F7F4FCE010196DED6811114C0C801A5
:100970003DDE882361F06C817D81C8010896B2D587
:10098000C801BBDE3FD48111A9CF03DDA7CFC801C9
:10099000B4DE38D4A3CFC801B0DE34D480E00F90E9
:1009A0000F900F900F900F90DF91CF911F910F91AB
:1009B000FF90EF90DF90CF900895CF92DF92EF926B
:1009C000FF920F931F93CF93DF9300D01F921F923C
:1009D000CDB7DEB78C016B015D834C83E12C0FB684
:1009E000F8940F92F801F28CFF2091F0B601C80143
:1009F0006ADEFA94F801F28E8085882329F0C80116
:100A00000896C9D58111C5DC0F900FBE81E046C0A4
:100A10008C819D81892B21F40F900FBE80E03EC018
:100A2000E11005C0CE01019673D6EE24E3940F9039
:100A30000FBEBFD20FB6F8940F92F801858D8F3F8D
:100A400009F4158EF801868D8F3F09F4168E0F90EC
:100A50000FBEBE016C5F7F4FCE01019664D681113F
:100A600014C0C801B6DD882361F06C817D81C801A6
:100A7000419638D5C80141DEC5D38111B0CF89DC9C
:100A8000AECFC8013ADEBED3AACFC80136DEBAD394
:100A9000C8019FDD882309F4A2CF80E00F900F905A
:100AA0000F900F900F90DF91CF911F910F91FF90BA
:100AB000EF90DF90CF9008950FB6F8940F92FC015D
:100AC000828D0F900FBE0895CF93DF93EC010FB688
:100AD000F8940F928D8D8F3F09F41D8E8E8D8F3F70
:100AE00009F41E8E0F900FBE8A8D811103C0CE01B6
:100AF000419609D5CE0101DEDF91CF910895E091B5
:100B00007502F09176028081811107C08FEF9FEF0F
:100B100090934C0280934B020895E0917502F091FE
:100B200076020580F681E02D8081918190934C02C0
:100B300080934B020895CF93DF93EC018F89988DBA
:100B40003BDDCE0139DDDF91CF9108954F925F9269
:100B50006F927F928F929F92AF92BF92CF92DF92CD
:100B6000EF92FF920F93CF93DF932C015B014A0129
:100B70003901E60165EA70E08F89988D0E9493152E
:100B80008F89988D21E0821A9108880E991EA114F0
:100B9000B10489F414C0822F90E0F501E80FF91F29
:100BA0003081DE01A80FB91F59963C9380818823BC
:100BB00029F02F5F01C020E0283068F318A204302C
:100BC00008F003E00E8B09A3CE0102961BDBCE01D9
:100BD0000C9618DBD987C88784E090E0801B9109C8
:100BE0009D878C87DB8BCA8BA301B201C40166DBB6
:100BF00099838883E114F10419F0F701D183C0834C
:100C0000DF91CF910F91FF90EF90DF90CF90BF9049
:100C1000AF909F908F907F906F905F904F900895CE
:100C2000CF93C0E00FC08C2F90E09C01220F331FA8
:100C3000220F331F220F331F820F931F87579D4FA1
:100C4000D3DACF5FC43078F380E892E0CDDA87E77B
:100C500092E0CADA8AE692E0C7DA81E692E0C4DA84
:100C600087E592E0C1DA80E892E090937602809383
:100C7000750287E792E09093740280937302CF919C
:100C80000895CF93DF93EC010FB6F8940F92809103
:100C900056028F5F809356028091AD029091AE0212
:100CA000892B51F4D093AE02C093AD0280915602CD
:100CB000813091F4B5DF10C08091520281110CC0D7
:100CC000E091AD02F091AE0296898E89891720F0ED
:100CD000D093AE02C093AD0280914D028F5F80939E
:100CE0004D028E8990915302981710F4809353020D
:100CF00090E0FC01EE0FFF1FEE0FFF1FEE0FFF1F36
:100D00008E0F9F1FFC01E757FD4F0180F281E02D00
:100D1000FD83EC83848195819F838E83A481B5813B
:100D2000CE01029613969C938E931297958384839B
:100D3000EE89F0E0CF01880F991F880F991F880F67
:100D4000991FE80FF91FE757FD4FFB87EA8780815E
:100D50008F5F80830F900FBE80915202882349F0ED
:100D6000E091AD02F091AE0296898E89981708F451
:100D700010DBDF91CF910895CF93DF931AC00FB6A8
:100D8000F8940F92E0916602F0916702C681D781D4
:100D9000CE0102966CDA8091560281508093560201
:100DA000809160028150809360020F900FBECE014F
:100DB000C2DE809160028111E2CFDF91CF91089570
:100DC000FF920F931F93CF93DF93EC01F62E0091C8
:100DD0005402109155028091AD029091AE0202969C
:100DE00046DACF3F8FEFD807B1F5FF20A1F1E7E555
:100DF000F2E0A181B281C091AD02D091AE02BD837B
:100E0000AC83C091AD02D091AE0214968D919C91AD
:100E100015979F838E831496CD91DC9115978091C1
:100E2000AD029091AE0202969B838A838091AD02BF
:100E30009091AE02029615969C938E931497A09172
:100E4000AD02B091AE021B96FC93EE931A9780818F
:100E50008F5F80832DC0C00FD11FE091AD02F09154
:100E6000AE02D383C283C017D10760F46091AD0294
:100E70007091AE0280917302909174026E5F7F4F09
:100E8000C5D916C06091AD027091AE028091750215
:100E9000909176026E5F7F4FB9D980914B0290910D
:100EA0004C02C817D90720F4D0934C02C0934B02D0
:100EB000DF91CF911F910F91FF9008952F923F9254
:100EC0004F925F926F927F928F929F92AF92BF925A
:100ED000CF92DF92EF92FF920F93CF93DF933C017B
:100EE0001B014A012901CA015ADB6C01892B89F0D7
:100EF00088E290E054DBEC01892B41F088E2FE01AE
:100F000011928A95E9F7D88ECF8A05C0C60154DBC5
:100F100002C0C0E0D0E0209761F0A12CB12C6E019E
:100F20009201A401B101C30111DECE01AADE81E06C
:100F300001C08FEFDF91CF910F91FF90EF90DF9085
:100F4000CF90BF90AF909F908F907F906F905F9069
:100F50004F903F902F900895EF92FF920F930F2E96
:100F6000F9E4EF2EF2E0FF2EF02D00E020E030E07B
:100F700045E550E067E072E08CEB90E09FDF813068
:100F800009F449D6813079F4F8948FEF9FEF90936C
:100F90004C0280934B0281E08093520210925502E2
:100FA00010925402C8DA809106020F91FF90EF90E0
:100FB0000895809148028F5F8093480208950FB68C
:100FC000F8940F9280915402909155020F900FBEA9
:100FD00008950F931F93CF93DF938091480281115F
:100FE00000C1C0915402D09155028E010F5F1F4F76
:100FF000109355020093540201151105B1F480912C
:1010000075029091760220917302309174023093B0
:1010100076022093750290937402809373028091FC
:101020004E028F5F80934E026ADD80914B02909159
:101030004C020817190720F480E0B8C081E001C015
:1010400080E0E0917502F09176029081911107C0E5
:101050002FEF3FEF30934C0220934B02A7C0E0915B
:101060007502F09176020580F681E02D0680F78109
:10107000E02D228133810217130728F430934C02AC
:1010800020934B0293C0A285B3852481358146818C
:101090005781E9015D834C832681378144815581E5
:1010A000E9015B834A8311962D913C911297AF0120
:1010B0004E5F5F4F2417350731F426813781129632
:1010C0003C932E931197138612869C9191509C937A
:1010D000A489B589109719F12685378560897189AA
:1010E000E9017D836C832089318966857785E901F3
:1010F0007B836A8311966D917C9112979F01245F87
:101100003F4F6217730731F42089318912963C935F
:101110002E931197158A148A9C9191509C9326893D
:1011200090915302921710F42093530230E0D901AA
:10113000AA0FBB1FAA0FBB1FAA0FBB1F2A0F3B1F63
:10114000D901A757BD4F11960D90BC91A02DB58325
:10115000A48314962D913C9115973783268314967A
:101160002D913C911597E9015B834A8315965C9319
:101170004E931497A689B0E09D01220F331F220FD2
:10118000331F220F331FA20FB31FA757BD4FB387C3
:10119000A2879C919F5F9C932689E091AD02F0917C
:1011A000AE029689921708F449CF4BCFE091AD0279
:1011B000F091AE02268930E0F901EE0FFF1FEE0F2D
:1011C000FF1FEE0FFF1F2E0F3F1FF901E757FD4FC7
:1011D0009081923008F081E090914F0291110CC003
:1011E0000CC080915002909151020196909351024F
:1011F0008093500280E001C081E0DF91CF911F9188
:101200000F910895CF93DF930FB6F8940F928091CA
:101210004802815080934802809148028111BDC0EC
:1012200080915602811196C0BBC0E0916F02F0918F
:1012300070020680F781E02DA489B589C685D7851F
:10124000808991899D838C83C089D1898685978582
:101250009B838A8311962D913C911297CF010C9616
:101260002817390731F48089918912969C938E93BF
:101270001197158A148A8C9181508C93A285B3851D
:10128000C481D581868197819D838C83C681D781D6
:10129000848195819B838A8311968D919C9112976D
:1012A0009F012E5F3F4F8217930731F4868197810C
:1012B00012969C938E931197138612868C9181506F
:1012C0008C93868990915302981710F4809353025F
:1012D00090E0DC01AA0FBB1FAA0FBB1FAA0FBB1F08
:1012E0008A0F9B1FDC01A757BD4F11960D90BC9133
:1012F000A02DB583A48314968D919C911597978307
:1013000086831496CD91DC9115973B832A8315969D
:101310003C932E931497A689B0E0CD01880F991FB6
:10132000880F991F880F991FA80FB91FA757BD4F86
:10133000B387A2878C918F5F8C939689A091AD0221
:10134000B091AE0256968C91891730F481E080936B
:101350004F0202C0E0E0F0E080916A02811165CFA7
:10136000EF2B09F0CCDBC0915002D09151022097B5
:1013700061F02FDE882319F081E080934F022197DE
:10138000C1F7109251021092500280914F028823AF
:1013900031F00E94C90181E003C080E001C080E01B
:1013A0000F900FBEDF91CF9108950F931F93CF93AE
:1013B000DF938C01EB01FDDD409154025091550209
:1013C000F80120813181C9018C0F9D1F42175307FD
:1013D00040F48217930768F44817590760F0C0E09B
:1013E0000FC08217930748F04817590740F0C0E034
:1013F00007C0C0E005C0C1E003C0C1E001C0C1E05A
:10140000F80191838083CC2321F060E0841B950B4D
:10141000D7DCF8DE811102C00E94C9018C2FDF9158
:10142000CF911F910F91089580914802882321F058
:1014300081E080934F02089510924F022091530251
:1014400001C02150822F90E0FC01EE0FFF1FEE0F34
:10145000FF1FEE0FFF1FE80FF91FE757FD4F308109
:10146000332379F3AC01440F551F440F551F440F2C
:10147000551F480F591FFA01E757FD4FA181B2814F
:1014800012966D917C9113977283618344575D4FDF
:101490006417750779F4FC01EE0FFF1FEE0FFF1FB5
:1014A000EE0FFF1FE80FF91FE757FD4F45815681EB
:1014B00052834183FC01EE0FFF1FEE0FFF1FEE0F63
:1014C000FF1F8E0F9F1FFC01E757FD4F0180F28128
:1014D000E02D868197819093AE028093AD02209398
:1014E00053020895CF93DF93EB016091AD027091A9
:1014F000AE02645F7F4F0E94060161E0CE0160DCB6
:10150000DF91CF9108950F931F93CF93DF93FC0149
:101510008B01A181B2818091AD029091AE02EC016C
:10152000BF87AE878091AD029091AE0214962D9147
:101530003C911597EC01398B288B14968D919C91D9
:1015400015972091AD023091AE02245F3F4FEC0120
:101550003B832A832091AD023091AE02245F3F4F3E
:1015600015963C932E931497A091AD02B091AE02C4
:101570005596FC93EE93549790819F5F90834423FC
:1015800011F00FEF1FEF642FC8011ADCDF91CF912C
:101590001F910F910895CF93DF93DC011596ED9184
:1015A000FC9116970680F781E02DA489B589C68540
:1015B000D785808991899D838C83C089D1898685CF
:1015C00097859B838A8311968D919C9112979F0199
:1015D000245F3F4F8217930731F4808991891296D7
:1015E0009C938E931197158A148A8C9181508C93B9
:1015F00080914802811160C0A285B385C481D581E4
:10160000868197819D838C83C681D78184819581D2
:101610009B838A8311968D919C9112979F012E5FD7
:101620003F4F8217930731F48681978112969C93DE
:101630008E931197138612868C9181508C93868994
:1016400090915302981710F48093530290E0DC01BC
:10165000AA0FBB1FAA0FBB1FAA0FBB1F8A0F9B1F7E
:10166000DC01A757BD4F11960D90BC91A02DB583FD
:10167000A48314968D919C911597978386831496D5
:10168000CD91DC9115973B832A8315963C932E933D
:101690001497A689B0E0CD01880F991F880F991F74
:1016A000880F991FA80FB91FA757BD4FB387A287EF
:1016B0008C918F5F8C931CC04AE652E0DA01119640
:1016C000CD91DC911297D787C6878C819D81918BB4
:1016D000808B8C819D81DC0113963C932E93129715
:1016E0003D832C83558B448BDA018C918F5F8C93D7
:1016F0009689E091AD02F091AE028689891720F4B7
:1017000081E080934F0201C080E0DF91CF91089586
:1017100020914E02FC012083209154023091550209
:101720003283218308951F93CF93DF930FB6F894EC
:101730000F92E0915402F0915502DC0111964D9107
:101740005C911297DF01A41BB50BEB012881398155
:101750002F3FDFEF3D07F1F0EC011881C0914E0201
:101760001C1741F0E417F50728F0FB0111821082E5
:1017700081E011C0A217B30740F4FB012A1B3B0B09
:1017800031832083C5DF80E006C0DB011D921C92FF
:1017900081E001C080E00F900FBEDF91CF911F91DB
:1017A000089581E080934F0208950F931F93CF9384
:1017B000DF93FC01892B09F451C082A1815082A3DF
:1017C000268991A1291709F44BC081114BC0EF0163
:1017D0008F010E5F1F4FC8010E94370189A18E8BB8
:1017E00024E030E0281B31093D872C87909153027B
:1017F000981710F48093530290E0FC01EE0FFF1F46
:10180000EE0FFF1FEE0FFF1F8E0F9F1FFC01E7570C
:10181000FD4F0180F281E02DFD83EC838481958171
:101820009F838E83A481B58113961C930E93129788
:1018300015830483EE89F0E0CF01880F991F880F8C
:10184000991F880F991FE80FF91FE757FD4FFB8776
:10185000EA8780818F5F808381E005C080E003C0DC
:1018600080E001C080E0DF91CF911F910F9108953A
:10187000DC01E091B702F091B802808191E0811122
:1018800090E09C93911106C00580F681E02D808147
:101890009181089580E090E00895FC017383628354
:1018A000918780874617570790F0421B530B84851A
:1018B000958548175907E0F4BF016E5F7F4F80910F
:1018C000B5029091B6020E94060180E00895421789
:1018D000530718F46217730768F4BF016E5F7F4FF8
:1018E0008091B7029091B8020E94060180E00895AD
:1018F00081E0089581E00895EF92FF920F931F9386
:10190000CF93DF93EC018B017A0108C08C859D8514
:10191000080F191FE889F989CE0119956C857D8515
:10192000600F711F9801A701CE01B7DF8111EECFC3
:10193000DF91CF911F910F91FF90EF900895EF925B
:10194000FF920F931F93CF93DF938C017B01E09164
:10195000B702F091B8020580F681E02DC681D781EB
:10196000CE0102960E9437018A8982FF05C0A70135
:10197000B801CE01C1DF02C08E7F8A8BE889F98968
:10198000CE011995DF91CF911F910F91FF90EF90AC
:10199000089508C00580F681E02D6FEF7FEF80810C
:1019A0009181CDDFE091B702F091B8028081811181
:1019B000F1CF8091B5029091B6029093B8028093D6
:1019C000B702F093B602E093B50208950F931F9308
:1019D000CF93DF938C01F3DAEC018091AF02909109
:1019E000B002C817D90728F4D4DF81E0F80180835A
:1019F00002C0F8011082D093B002C093AF02CE01B2
:101A0000DF91CF911F910F910895CF92DF92EF92C6
:101A1000FF921F93CF93DF931F92CDB7DEB77C0168
:101A2000162FC7DACE010196D1DF6C0189818111B1
:101A300023C0111108C0CE14DF0428F0E3DBB60187
:101A4000C7017DDF1AC0112341F0E091B502F0918A
:101A5000B602808111E0811110E0B7016C197D0997
:101A6000412F8091B3029091B4022ED8CBDB81112B
:101A700004C00E94C90101C0C5DB0F90DF91CF9166
:101A80001F91FF90EF90DF90CF900895EF92FF921B
:101A90000F931F93CF93DF9300D000D0CDB7DEB765
:101AA00077C0898188230CF473C00C811D81D80113
:101AB0001A968D919C911B97892B21F0C801029653
:101AC0000E943701CE01069681DF7C01E9818E2FCD
:101AD000EE0F990BAA0BBB0BFC013197E930F10516
:101AE00008F056C08827EE58FF4F8F4FEAC6F8011E
:101AF00082898160828B2A813B8164857585620F32
:101B0000731FA701C801C9DE882309F441C0D801A9
:101B100052968C91529782FF0CC06A817B811C96F1
:101B20008D919C911D97680F791FA701C801E4DE74
:101B300003C08E7FF801828BD8015096ED91FC9105
:101B40005197C801199524C0F80182898E7F828B34
:101B50001FC0D80152968C915297816052968C93F7
:101B600052976A817B811D967C936E931C976E0DB4
:101B70007F1D9701A701C80190DE0AC0F801828984
:101B800081FD04C0C8010E94DC0202C08E7F828BEE
:101B900040E050E0BE016F5F7F4F8091B3029091B3
:101BA000B4020E94DD0481117CCF26960FB6F89412
:101BB000DEBF0FBECDBFDF91CF911F910F91FF9080
:101BC000EF9008950FB6F8940F928091B302909120
:101BD000B402892BE9F482EC92E00E94F40089EBD4
:101BE00092E00E94F40082EC92E09093B80280931D
:101BF000B70289EB92E09093B6028093B50240E081
:101C000065E08AE00E941C049093B4028093B302C2
:101C10000F900FBE0895EF92FF920F93D3DF809144
:101C2000B3029091B402892B89F00F2EF1EBEF2EC5
:101C3000F2E0FF2EF02D03E020E030E045E550E03B
:101C40006CE072E083EC90E039D901C080E00F9144
:101C5000FF90EF90089595B19F7D95B995B19F7BC9
:101C600095B995B1906895B980930B0182E08A95FA
:101C7000F1F700C085B18F7785B9089584B1806E82
:101C800084B98FEF80930A0188E3E5DF80E78A95C6
:101C9000F1F78EE0E0DF90E79A95F1F781E0DBDF86
:101CA0008FE99FE00197F1F700C0000008956130CF
:101CB00031F48058D0DF80E78A95F1F708956230DB
:101CC00029F48054C8DF80E78A95F1F70895FC0174
:101CD00085B1806285B985B18F7B85B910C095B11A
:101CE000906895B982E08A95F1F700C08191809360
:101CF0000B0195B19F7795B980E78A95F1F78081BF
:101D00008111EDCF08951F93CF93DF939C01EB01D9
:101D10006AE070E0C3D5182F2A30310544F0C901BC
:101D20006AE070E0BBD5CB01BE01EDDF02C080E010
:101D300090E0C80FD91F105D18830196DF91CF91F5
:101D40001F9108954F925F926F927F928F929F9210
:101D5000AF92BF92EF92FF920F931F93CF93DF93B7
:101D60002B013C01EA01790120E030E0A9016BD2AE
:101D7000882354F48DE2F701808377FA709477F822
:101D8000709401E010E002C000E010E0A12CB12C42
:101D900060E070E080E09FE308C020E030E040E2D7
:101DA00051E455D2FFEFAF1ABF0AAC16BD06ACF333
:101DB0009B01AC01C301B201E2D12B013C01AFD2C6
:101DC0004B015C01B701600F711FC4019CDF800FE4
:101DD000911F8C010F5F1F4FF701E80FF91F2EE2D3
:101DE0002083B401990C880B990BCCD29B01AC01D8
:101DF000C301B201C3D14B015C0180E090E061E01E
:101E000070E00CC09B01220F331F660F771F660F17
:101E1000771F660F771F620F731F01968C179D0740
:101E20008CF3072E000C880B990BACD2A501940102
:101E300059D375D2DC01CB01B701600F711F63DF8D
:101E4000800F911FF701E80FF91F1082C701DF9182
:101E5000CF911F910F91FF90EF90BF90AF909F9007
:101E60008F907F906F905F904F900895CF93DF9306
:101E7000CDB7DEB72A970FB6F894DEBF0FBECDBF41
:101E80009ED89A83898310E01FD16B837C838D83D6
:101E90009E8344D16F83788789879A8720E040E0CA
:101EA00050E0BE016D5F7F4F8091CB029091CC02DC
:101EB0000E945B0420E040E050E0BE01695F7F4F7C
:101EC0008091CB029091CC020E945B0428B181E00A
:101ED00090E0012E02C0880F991F0A94E2F78095C6
:101EE000822388B91F5F183009F410E064E670E0BF
:101EF000CE0101965ADAC8CFCF93DF93CDB7DEB7C4
:101F000068970FB6F894DEBF0FBECDBF8091CB02AD
:101F10009091CC020E945C0544E650E0BE016F5EE9
:101F20007F4F8091CB029091CC020E94DD0444E669
:101F300050E0BE016B5E7F4F8091CB029091CC024E
:101F40000E94DD048FEF88B961E080E0B0DE84E1BB
:101F500092E0BDDE69897A898B899C899E012F5F19
:101F60003F4F41E050E0EEDEB2DE87E192E0AFDECF
:101F700062E080E09CDE8CE192E0A9DE6D897E89E2
:101F80008F89988D9E012F5F3F4F41E050E0DADE50
:101F90009EDE8FE192E09BDE82E292E098DE69892C
:101FA0007A898B899C89D3D09E012F5F3F4F41E076
:101FB00050E0C8DE8CDE85E292E089DEA7CFCF93C9
:101FC000DF93CDB7DEB760970FB6F894DEBF0FBED4
:101FD000CDBF8FEF87B952DE40D040E064E082E0B1
:101FE0000E941C049093CC028093CB02892BC1F0F9
:101FF000E12CF12C02E020E030E048EE53E067E213
:1020000072E086E39FE00E945E0701E020E030E09E
:1020100048EE53E061E372E08CE79FE00E945E07C8
:102020008CE392E054DE62E080E041DE8FE03AD063
:1020300042E0BE016F5F7F4F90E07CD548DE2FEF1E
:102040008DE399E4215080409040E1F700C000000A
:1020500015DE0E94AC0718B8FECF84B1876084B942
:1020600084B1877F84B985B1816085B98CB58D6570
:102070008CBD8CB58D7F8CBD8CB58F7D8CBD8DB5A9
:102080008E7F8DBD089595B19E7F95B98EBD0DB49F
:1020900007FEFDCF6EBD0DB407FEFDCF85B181609B
:1020A00085B9089595B19E7F95B980688EBD0DB4B0
:1020B00007FEFDCF8FEF8EBD0DB407FEFDCF8EB5B1
:1020C00095B1916095B90895CF93DF936CE280E16B
:1020D000DADF88E2E7DFC82F89E2E4DFD82F8AE27F
:1020E000E1DF90E0A0E0B0E0DC01992788272D2F08
:1020F00030E0322F2227820F931FA11DB11DBC019A
:10210000CD016C0F711D811D911D3AD120E030E091
:1021100040E859E3E7D1DF91CF910895CF936CE286
:1021200080E1B1DF8BE2BEDFC82F8CE2BBDF682F1E
:1021300070E0762F66276C0F711D80E090E020D153
:1021400020E030E048EC52E482D0CF91089520E0C6
:1021500030E54DE754E47BD02AE13BEF43E45EE316
:1021600024D29B01AC0160E070E080E89FE306D0E0
:1021700028ED35EC40E357E4B5C108955058BB272E
:10218000AA270ED075C166D130F06BD120F031F4A2
:102190009F3F11F41EF45BC10EF4E095E7FB51C1C3
:1021A000E92F77D180F3BA17620773078407950781
:1021B00018F071F49EF58FC10EF4E0950B2EBA2F36
:1021C000A02D0B01B90190010C01CA01A00111243D
:1021D000FF27591B99F0593F50F4503E68F11A16E9
:1021E000F040A22F232F342F4427585FF3CF46957A
:1021F00037952795A795F0405395C9F77EF41F169C
:10220000BA0B620B730B840BBAF09150A1F0FF0F65
:10221000BB1F661F771F881FC2F70EC0BA0F621F51
:10222000731F841F48F4879577956795B795F79541
:102230009E3F08F0B3CF9395880F08F09927EE0FD3
:10224000979587950895D9D008F481E008950CD02A
:102250000FC107D140F0FED030F021F45F3F19F0FC
:10226000F0C0511139C1F3C014D198F39923C9F3C7
:102270005523B1F3951B550BBB27AA27621773078C
:10228000840738F09F5F5F4F220F331F441FAA1F40
:10229000A9F333D00E2E3AF0E0E830D09150504000
:1022A000E695001CCAF729D0FE2F27D0660F771FAE
:1022B000881FBB1F261737074807AB07B0E809F090
:1022C000BB0B802DBF01FF2793585F4F2AF09E3F25
:1022D000510568F0B6C000C15F3FECF3983EDCF3F7
:1022E000869577956795B795F7959F5FC9F7880F9E
:1022F000911D9695879597F90895E1E0660F771FF0
:10230000881FBB1F621773078407BA0720F0621B80
:10231000730B840BBA0BEE1F88F7E095089504D079
:102320006894B111D9C00895BCD088F09F5790F03F
:10233000B92F9927B751A0F0D1F0660F771F881FEA
:10234000991F1AF0BA95C9F712C0B13081F0C3D005
:10235000B1E00895C0C0672F782F8827B85F39F0A3
:10236000B93FCCF3869577956795B395D9F73EF449
:1023700090958095709561957F4F8F4F9F4F0895F1
:10238000E89409C097FB3EF490958095709561950F
:102390007F4F8F4F9F4F9923A9F0F92F96E9BB27C5
:1023A0009395F695879577956795B795F111F8CF41
:1023B000FAF4BB0F11F460FF1BC06F5F7F4F8F4FAC
:1023C0009F4F16C0882311F096E911C0772321F0A2
:1023D0009EE8872F762F05C0662371F096E8862F3A
:1023E00070E060E02AF09A95660F771F881FDAF791
:1023F000880F9695879597F90895990F0008550FBE
:10240000AA0BE0E8FEEF16161706E807F907C0F07A
:1024100012161306E407F50798F0621B730B840B82
:10242000950B39F40A2661F0232B242B252B21F45C
:1024300008950A2609F4A140A6958FEF811D811DFC
:10244000089597F99F6780E870E060E008959FEF36
:1024500080EC089500240A9416161706180609063B
:10246000089500240A94121613061406050608950A
:10247000092E0394000C11F4882352F0BB0F40F492
:10248000BF2B11F460FF04C06F5F7F4F8F4F9F4FD2
:10249000089557FD9058440F551F59F05F3F71F054
:1024A0004795880F97FB991F61F09F3F79F08795BB
:1024B0000895121613061406551FF2CF4695F1DF44
:1024C00008C0161617061806991FF1CF86957105D4
:1024D000610508940895E894BB2766277727CB0108
:1024E00097F908950BD0C4CFB5DF28F0BADF18F004
:1024F000952309F0A6CFABCF1124EECFCADFA0F30E
:10250000959FD1F3950F50E0551F629FF001729F88
:10251000BB27F00DB11D639FAA27F00DB11DAA1FA7
:10252000649F6627B00DA11D661F829F2227B00DF4
:10253000A11D621F739FB00DA11D621F839FA00D7F
:10254000611D221F749F3327A00D611D231F849FCF
:10255000600D211D822F762F6A2F11249F57504026
:102560008AF0E1F088234AF0EE0FFF1FBB1F661FC1
:10257000771F881F91505040A9F79E3F510570F07A
:1025800060CFAACF5F3FECF3983EDCF3869577955A
:102590006795B795F795E7959F5FC1F7FE2B880F75
:1025A000911D9695879597F90895FA01EE0FFF1FF3
:1025B00030962105310599F16115710561F4803876
:1025C000BFE39B0749F168949038810561F080383A
:1025D000BFEF9B0741F0992342F5FF3FE10531052D
:1025E000210511F1E8940894E795D901AA2329F46B
:1025F000AB2FBE2FF85FD0F310C0FF5F70F4A6952D
:10260000E0F7F73950F019F0FF3A38F49F779F93CD
:102610000CD00F9007FC905808953EF018CF60E062
:1026200070E080E89FE308954FE79F775F934F93B3
:102630003F932F939ED02F913F914F915F9152DF07
:1026400005C019F40EF0FDCE46CF01CF2ADFC8F346
:102650009638C0F707F80F92E8942BE33AEA48EB74
:102660005FE74EDF0F920F920F924DB75EB70F925A
:10267000C0D0E6EFF0E016D04F915F91EF91FF915F
:10268000E595EE1FFF1F49F0FE57E0684427EE0F67
:10269000441FFA95E1F74195550B32D00F9007FE94
:1026A00026C00895DF93CF931F930F93FF92EF926D
:1026B000DF927B018C01689405C0DA2EEF011EDFEA
:1026C000FE01E894A5912591359145915591AEF380
:1026D000EF0166DDFE019701A801DA9479F7DF903A
:1026E000EF90FF900F911F91CF91DF9108959B0183
:1026F000AC0160E070E080E89FE3A9CDA2CEACC061
:10270000D0DEE8F39923D9F3940F511DBBF3915018
:10271000504094F059F0882332F0660F771F881FDD
:1027200091505040C1F79E3F510544F7880F911DCD
:102730009695879597F908955F3FACF0983E9CF089
:10274000BB27869577956795B79508F4B160939503
:10275000C1F7BB0F58F711F460FFE8CF6F5F7F4FF1
:102760008F4F9F4FE3CFB8CE0EF076C070CE6894F7
:1027700068CE97DEC8F39923D1F3C6F3DF93CF93E6
:102780001F930F93FF92C92FDD2788232AF02197EB
:10279000660F771F881FDAF720E030E040E85FEB34
:1027A0009FE3883920F0803E30F021968F77E7DC78
:1027B000EEE1F1E003C0E3DCEBE4F1E073DF8B0179
:1027C000BE01EC01FB2E6F5771097595771F880BC1
:1027D000990BD8DD28E132E741E35FE38FDEAF2DCF
:1027E0009801AE01FF900F911F91CF91DF91D8DC3E
:1027F0003FCEFA01DC01AA0FBB1F9B01AC01BF5702
:1028000028F422273327442750781FC0B75188F473
:10281000AB2F0024469537952795011CA395D2F33D
:10282000002069F0220F331F441FB395DAF30DD057
:10283000A5CC61307105A0E88A07B94630F49B0148
:10284000AC016627772788279078309621F020837F
:1028500031834283538308959F3F31F0915020F498
:10286000879577956795B795880F911D969587956C
:1028700097F90895AA1BBB1B51E107C0AA1FBB1FF4
:10288000A617B70710F0A61BB70B881F991F5A95FC
:10289000A9F780959095BC01CD01089597FB072E6F
:1028A00016F4009406D077FD08D0E4DF07FC05D0CD
:1028B0003EF4909581959F4F0895709561957F4F57
:1028C0000895EE0FFF1F881F8BBF0790F691E02D34
:1028D00019940F931F93CF93DF938230910510F4D7
:1028E00082E090E0E091CF02F091D00220E030E071
:1028F000A0E0B0E0309719F140815181028113814D
:1029000048175907C8F08417950769F4109731F0F4
:1029100012960C93129713961C9327C00093CF0224
:102920001093D00222C02115310519F04217530728
:1029300018F49A01BD01EF01DF01F801DBCF211589
:102940003105F9F0281B390B2430310580F48A81D8
:102950009B816115710521F0FB019383828304C083
:102960009093D0028093CF02FE01329644C0FE01C4
:10297000E20FF31F81939193225031093983288309
:102980003AC02091CD023091CE02232B41F4209108
:102990000202309103023093CE022093CD022091A7
:1029A0000002309101022115310541F42DB73EB7E7
:1029B0004091040250910502241B350BE091CD0299
:1029C000F091CE02E217F307A0F42E1B3F0B28175D
:1029D000390778F0AC014E5F5F4F2417350748F098
:1029E0004E0F5F1F5093CE024093CD02819391937F
:1029F00002C0E0E0F0E0CF01DF91CF911F910F9195
:102A00000895CF93DF93009709F481C0FC013297BA
:102A100013821282A091CF02B091D002109781F45C
:102A200020813181820F931F2091CD023091CE02FF
:102A30002817390751F5F093CE02E093CD0267C015
:102A4000ED0120E030E0CE17DF0740F44A815B81E2
:102A50009E0141155105F1F0EA01F5CFD383C28300
:102A600040815181840F951FC817D90759F4888177
:102A70009981840F951F0296918380838A819B811F
:102A8000938382832115310529F4F093D002E093DA
:102A9000CF023DC0E901FB83EA8349915991C40FFC
:102AA000D51FEC17FD0761F480819181840F951F7C
:102AB0000296E90199838883828193819B838A832B
:102AC000E0E0F0E012968D919C911397009719F039
:102AD000FD01DC01F7CF8D919C9111979D012E5F37
:102AE0003F4F820F931F2091CD023091CE022817C5
:102AF000390769F4309729F41092D0021092CF026E
:102B000002C013821282B093CE02A093CD02DF9155
:102B1000CF910895FB01DC0102C001900D9241505C
:102B20005040D8F70895DC0101C06D9341505040EA
:102B3000E0F70895BB27FB015527AA27880F991FA7
:102B4000AA1FA41710F0A41B83955051B9F7A05DDC
:102B5000AA3308F0A95DA193009779F7B111B19359
:102B60001192CB0100C0DC01FC01672F719177232A
:102B7000E1F7329704C07C916D9370836291AE1738
:0A2B8000BF07C8F30895F894FFCFD3
:102B8A000000D10220000349444C4500546D7220D4
:102B9A0053766300703D002068506100543D004345
:102BAA002000683D006D00526561645F5461736B7B
:102BBA000057726974655F5461736B0057686F20C0
:082BCA00616D20493F2000006D
:00000001FF
